:020000040800F2
:1000000000280020490D0008E50C0008ED0C000850
:10001000F50C0008FD0C0008050D000800000000AC
:100020000000000000000000000000000D0D0008AE
:10003000190D000800000000250D0008310D000812
:10004000910D0008910D0008910D0008910D000818
:10005000910D0008910D0008910D0008910D000808
:10006000910D0008910D0008910D0008910D0008F8
:10007000910D0008910D0008910D0008910D0008E8
:10008000910D0008910D0008910D0008910D0008D8
:10009000910D0008910D0008910D0008910D0008C8
:1000A000910D0008910D0008910D0008910D0008B8
:1000B000910D0008910D000800000000910D00084E
:1000C000910D00080000000000000000910D0008E4
:1000D00000000000910D0008910D000800000000D4
:1000E000910D0008910D0008910D0008000000001E
:1000F0000000000000000000000000000000000000
:0C01000000000000000000005FF808F1A3
:10010C0010B5054C237833B9044B13B10448AFF345
:10011C0000800123237010BD180000200000000097
:10012C00D81B000808B5034B1BB103490348AFF3B8
:10013C00008008BD000000001C000020D81B000837
:10014C0080B500AF01220121404801F003F90122E2
:10015C0002213E4801F0FEF8012204213B4801F047
:10016C00F9F801220821394801F0F4F80122102194
:10017C00364801F0EFF801222021344801F0EAF86A
:10018C0000228021324801F0E5F800224FF4807102
:10019C002F4801F0DFF800224FF400712C4801F0D9
:1001AC00D9F800224FF48061294801F0D3F80022DD
:1001BC004FF40061264801F0CDF800224FF4805135
:1001CC00234801F0C7F800224FF40051204801F0F9
:1001DC00C1F801211D4801F0D5F802211B4801F09E
:1001EC00D1F80421194801F0CDF80821174801F085
:1001FC00C9F81021154801F0C5F82021134801F069
:10020C00C1F88021124801F0BDF84FF480711048FC
:10021C0001F0B8F84FF400710D4801F0B3F84FF449
:10022C0080610B4801F0AEF84FF40061084801F012
:10023C00A9F84FF48051064801F0A4F84FF400518E
:10024C00034801F09FF800BF80BD00BF000C0140C7
:10025C000008014080B582B000AF78607B68092B44
:10026C0000F2BC8101A252F823F000BFA1020008E9
:10027C00F5020008490300089D030008F10300087B
:10028C004504000899040008ED0400084105000825
:10029C009505000800228021D24801F05BF800226D
:1002AC004FF48071CF4801F055F800224FF40071E3
:1002BC00CC4801F04FF800224FF48061C94801F09E
:1002CC0049F800224FF40061C64801F043F80022BF
:1002DC004FF48051C34801F03DF801224FF4005116
:1002EC00C04801F037F879E101228021BD4801F0C6
:1002FC0031F800224FF48071BA4801F02BF800223B
:10030C004FF40071B74801F025F801224FF48061D9
:10031C00B44801F01FF801224FF40061B14801F01C
:10032C0019F801224FF48051AE4801F013F8012264
:10033C004FF40051AB4801F00DF84FE10022802141
:10034C00A84801F007F800224FF48071A54801F08D
:10035C0001F801224FF40071A24800F0FBFF0022CB
:10036C004FF480619F4800F0F5FF00224FF40061CC
:10037C009C4800F0EFFF01224FF48051994800F0A7
:10038C00E9FF00224FF40051964800F0E3FF25E10D
:10039C0000228021934800F0DDFF00224FF4807191
:1003AC00904800F0D7FF00224FF400718D4800F008
:1003BC00D1FF00224FF480618A4800F0CBFF01226C
:1003CC004FF40061874800F0C5FF01224FF48051C3
:1003DC00844800F0BFFF00224FF40051814800F028
:1003EC00B9FFFBE0012280217E4800F0B3FF002220
:1003FC004FF480717B4800F0ADFF00224FF4007188
:10040C00784800F0A7FF01224FF48061754800F096
:10041C00A1FF01224FF40061724800F09BFF002203
:10042C004FF480516F4800F095FF00224FF40051BB
:10043C006C4800F08FFFD1E000228021694800F069
:10044C0089FF01224FF48071664800F083FF00227F
:10045C004FF40071634800F07DFF00224FF480617F
:10046C00604800F077FF01224FF400615D4800F016
:10047C0071FF00224FF480515A4800F06BFF0022AC
:10048C004FF40051574800F065FFA7E0002280218F
:10049C00544800F05FFF01224FF48071514800F086
:1004AC0059FF00224FF400714E4800F053FF002218
:1004BC004FF480614B4800F04DFF00224FF4006177
:1004CC00484800F047FF00224FF48051454800F0A7
:1004DC0041FF00224FF40051424800F03BFF7DE009
:1004EC00002280213F4800F035FF00224FF480713C
:1004FC003C4800F02FFF00224FF40071394800F007
:10050C0029FF01224FF48061364800F023FF0122BD
:10051C004FF40061334800F01DFF01224FF480516D
:10052C00304800F017FF01224FF400512D4800F025
:10053C0011FF53E0002280212A4800F00BFF00221B
:10054C004FF48071274800F005FF00224FF4007132
:10055C00244800F0FFFE00224FF48061214800F097
:10056C00F9FE00224FF400611E4800F0F3FE002259
:10057C004FF480511B4800F0EDFE00224FF4005167
:10058C00184800F0E7FE29E000228021154800F011
:10059C00E1FE00224FF48071124800F0DBFE0022D5
:1005AC004FF400710F4800F0D5FE00224FF480612B
:1005BC000C4800F0CFFE01224FF40061094800F016
:1005CC00C9FE00224FF48051064800F0C3FE002201
:1005DC004FF40051034800F0BDFE00BF00BF0837C8
:1005EC00BD4680BD0008014080B582B000AF786088
:1005FC007B68092B00F2A88101A252F823F000BFFE
:10060C003506000885060008D506000825070008F1
:10061C0075070008C50700081508000865080008DC
:10062C00B50800080509000800220221C84800F09E
:10063C0091FE00220421C64800F08CFE0022082105
:10064C00C34800F087FE00224FF48051C14800F0EF
:10065C0081FE00224FF40051BE4800F07BFE0022C8
:10066C004FF48041BB4800F075FE01224FF400416D
:10067C00B84800F06FFE67E101220221B44800F097
:10068C0069FE00220421B24800F064FE0022082119
:10069C00AF4800F05FFE01224FF48051AD4800F0EE
:1006AC0059FE01224FF40051AA4800F053FE0122DA
:1006BC004FF48041A74800F04DFE01224FF4004159
:1006CC00A44800F047FE3FE100220221A04800F0C0
:1006DC0041FE002204219E4800F03CFE012208212C
:1006EC009B4800F037FE00224FF48051994800F0EF
:1006FC0031FE00224FF40051964800F02BFE0122EF
:10070C004FF48041934800F025FE00224FF4004145
:10071C00904800F01FFE17E1002202218C4800F0E7
:10072C0019FE002204218A4800F014FE0022082140
:10073C00874800F00FFE00224FF48051854800F0EE
:10074C0009FE01224FF40051824800F003FE012201
:10075C004FF480417F4800F0FDFD00224FF4004132
:10076C007C4800F0F7FDEFE001220221784800F010
:10077C00F1FD00220421764800F0ECFD0022082156
:10078C00734800F0E7FD01224FF48051714800F0EE
:10079C00E1FD01224FF400516E4800F0DBFD002218
:1007AC004FF480416B4800F0D5FD00224FF400411E
:1007BC00684800F0CFFDC7E000220221644800F039
:1007CC00C9FD01220421624800F0C4FD0022082169
:1007DC005F4800F0BFFD00224FF480515D4800F0EF
:1007EC00B9FD01224FF400515A4800F0B3FD00222C
:1007FC004FF48041574800F0ADFD00224FF400410A
:10080C00544800F0A7FD9FE000220221504800F060
:10081C00A1FD012204214E4800F09CFD002208217C
:10082C004B4800F097FD00224FF48051494800F0EE
:10083C0091FD00224FF40051464800F08BFD002240
:10084C004FF48041434800F085FD00224FF40041F5
:10085C00404800F07FFD77E0002202213C4800F088
:10086C0079FD002204213A4800F074FD0022082191
:10087C00374800F06FFD01224FF48051354800F0ED
:10088C0069FD01224FF40051324800F063FD012252
:10089C004FF480412F4800F05DFD01224FF40041E0
:1008AC002C4800F057FD4FE000220221284800F0B0
:1008BC0051FD00220421264800F04CFD00220821A5
:1008CC00234800F047FD00224FF48051214800F0EE
:1008DC0041FD00224FF400511E4800F03BFD002268
:1008EC004FF480411B4800F035FD00224FF40041CD
:1008FC00184800F02FFD27E000220221144800F0D8
:10090C0029FD00220421124800F024FD00220821B8
:10091C000F4800F01FFD00224FF480510D4800F0ED
:10092C0019FD01224FF400510A4800F013FD00227A
:10093C004FF48041074800F00DFD00224FF40041B8
:10094C00044800F007FD00BF00BF0837BD4680BD5E
:10095C0000080140000C014080B500AF324B1B6811
:10096C001846FFF777FC304B1B68013B2E4A13608F
:10097C002E4B1B68022B3AD0022B52DC002B02D0E0
:10098C00012B1AD04DE0284B1B68002B05DA274BA6
:10099C0002221A60244B03221A60012201212448EE
:1009AC0000F0D8FC00220221214800F0D3FC0022E8
:1009BC0004211F4800F0CEFC34E01B4B1B68002BBD
:1009CC0005DA1A4B00221A60174B05221A60002216
:1009DC000121174800F0BEFC01220221144800F04E
:1009EC00B9FC00220421124800F0B4FC1AE00E4BB2
:1009FC001B68002B05DA0D4B01221A600A4B0222F0
:100A0C001A60002201210A4800F0A4FC00220221F5
:100A1C00074800F09FFC01220421054800F09AFCD5
:100A2C0000E000BF00BF80BD0000002034000020AB
:100A3C00000C014080B500AF324B1B681846FFF725
:100A4C00D3FD304B1B68013B2E4A13602E4B1B68A9
:100A5C00022B3AD0022B52DC002B02D0012B1AD0E5
:100A6C004DE0284B1B68002B05DA274B02221A603D
:100A7C00244B03221A6001220821244800F06AFC4E
:100A8C0000221021214800F065FC002220211F4883
:100A9C0000F060FC34E01B4B1B68002B05DA1A4B92
:100AAC0000221A60174B05221A60002208211748F1
:100ABC0000F050FC01221021144800F04BFC0022E5
:100ACC002021124800F046FC1AE00E4B1B68002B4C
:100ADC0005DA0D4B01221A600A4B02221A60002221
:100AEC0008210A4800F036FC00221021074800F0CB
:100AFC0031FC01222021054800F02CFC00E000BF55
:100B0C0000BF80BD0800002004000020000C014044
:100B1C0080B500AFFFF720FFFFF78CFF00BF80BD53
:100B2C0080B500AF00F030F900F00CF800F046F89A
:100B3C00FFF706FBFFF7ECFF4FF47A7000F086F935
:100B4C0000BFF7E780B590B000AF07F1180328227B
:100B5C000021184601F00EF83B1D00221A605A6065
:100B6C009A60DA601A610223BB610123BB62102315
:100B7C00FB6200237B6307F11803184600F01CFC92
:100B8C000346002B01D000F06FF80F237B6000238D
:100B9C00BB600023FB6000233B6100237B613B1D9A
:100BAC000021184600F08AFE0346002B01D000F00D
:100BBC005BF800BF4037BD4680BD000080B586B0F5
:100BCC0000AF07F1080300221A605A609A60DA60DD
:100BDC00224B9B69214A43F0040393611F4B9B6991
:100BEC0003F004037B607B681C4B9B691B4A43F03E
:100BFC0008039361194B9B6903F008033B603B6846
:100C0C00002243F6FE71164800F0A4FB00224FF6BA
:100C1C00FF71144800F09EFB43F6FE73BB6001238A
:100C2C00FB6000233B6102237B6107F1080319463B
:100C3C000B4800F013FA4FF6FF73BB600123FB6007
:100C4C0000233B6102237B6107F108031946054829
:100C5C0000F004FA00BF1837BD4680BD00100240FA
:100C6C0000080140000C014080B400AF72B600BF18
:100C7C0000BFFDE780B485B000AF154B9B69144AEB
:100C8C0043F001039361124B9B6903F00103BB60BA
:100C9C00BB680F4BDB690E4A43F08053D3610C4B9E
:100CAC00DB6903F080537B607B680A4B5B68FB60FD
:100CBC00FB6823F0E063FB60FB6843F08063FB6040
:100CCC00044AFB68536000BF1437BD4680BC7047B4
:100CDC00001002400000014080B400AF00BFFDE7EF
:100CEC0080B400AF00BFFDE780B400AF00BFFDE7EC
:100CFC0080B400AF00BFFDE780B400AF00BFFDE7DC
:100D0C0080B400AF00BFBD4680BC704780B400AF5C
:100D1C0000BFBD4680BC704780B400AF00BFBD466D
:100D2C0080BC704780B500AF00F074F800BF80BD88
:100D3C0080B400AF00BFBD4680BC7047FFF7F8FF22
:100D4C000B480C490C4A002302E0D458C45004331D
:100D5C00C4188C42F9D3094A094C002301E01360F2
:100D6C000432A242FBD300F00DFFFFF7D9FE70470F
:100D7C0000000020180000201C1C00081800002097
:100D8C003C000020FEE7000080B500AF084B1B685C
:100D9C00074A43F010031360032000F02BF90F20D7
:100DAC0000F008F8FFF766FF0023184680BD00BF6F
:100DBC000020024080B582B000AF7860124B1A68F8
:100DCC00124B1B7819464FF47A73B3FBF1F3B2FB59
:100DDC00F3F3184600F035F90346002B01D001233C
:100DEC000EE07B680F2B0AD8002279684FF0FF3099
:100DFC0000F00BF9064A7B681360002300E0012326
:100E0C0018460837BD4680BD0C0000201400002099
:100E1C001000002080B400AF054B1B781A46054B20
:100E2C001B681344034A136000BFBD4680BC704767
:100E3C00140000203800002080B400AF024B1B6867
:100E4C001846BD4680BC70473800002080B584B081
:100E5C0000AF7860FFF7F0FFB8607B68FB60FB6861
:100E6C00B3F1FF3F05D00A4B1B781A46FB681344BD
:100E7C00FB6000BFFFF7E0FF0246BB68D31AFA68BD
:100E8C009A42F7D800BF00BF1037BD4680BD00BFE7
:100E9C001400002080B485B000AF78607B6803F04C
:100EAC000703FB600C4BDB68BB60BA684FF6FF03B3
:100EBC001340BB60FB681A02BB68134343F0BF636B
:100ECC0043F40033BB60044ABB68D36000BF1437E3
:100EDC00BD4680BC704700BF00ED00E080B400AFA1
:100EEC00044BDB681B0A03F007031846BD4680BCA5
:100EFC00704700BF00ED00E080B483B000AF034644
:100F0C003960FB7197F90730002B0ADB3B68DAB2CA
:100F1C000C4997F907301201D2B20B4483F8002325
:100F2C000AE03B68DAB20849FB7903F00F03043B93
:100F3C001201D2B20B441A7600BF0C37BD4680BCEE
:100F4C00704700BF00E100E000ED00E080B489B024
:100F5C0000AFF860B9607A60FB6803F00703FB61CF
:100F6C00FB69C3F10703042B28BF0423BB61FB6996
:100F7C000433062B02D9FB69033B00E000237B61A1
:100F8C004FF0FF32BB6902FA03F3DA43BB681A4035
:100F9C007B699A404FF0FF317B6901FA03F3D94327
:100FAC007B680B40134318462437BD4680BC704702
:100FBC0080B582B000AF78607B68013BB3F1807F75
:100FCC0001D301230FE00A4A7B68013B53600F21D8
:100FDC004FF0FF30FFF790FF054B00229A60044B57
:100FEC0007221A60002318460837BD4680BD00BF93
:100FFC0010E000E080B582B000AF78607868FFF751
:10100C0049FF00BF0837BD4680BD80B586B000AF34
:10101C000346B9607A60FB7300237B61FFF75EFFC8
:10102C0078617A68B9687869FFF790FF024697F99A
:10103C000F3011461846FFF75FFF00BF1837BD464B
:10104C0080BD80B582B000AF78607868FFF7B0FFE4
:10105C00034618460837BD4680BD000080B48BB0EF
:10106C0000AF7860396000237B6200233B6261E152
:10107C0001227B6A02FA03F3FB613B681B68FA6985
:10108C001340BB61BA69FB699A4240F050813B68DE
:10109C005B68974A93425ED0954A934275D8954ABD
:1010AC00934258D0934A93426FD8934A934252D06A
:1010BC00914A934269D8914A93424CD08F4A9342B9
:1010CC0063D88F4A934246D08D4A93425DD8122BF7
:1010DC002AD8122B59D801A252F823F06311000818
:1010EC003D1100084F1100089111000897110008DC
:1010FC009711000897110008971100089711000824
:10110C009711000897110008971100089711000813
:10111C009711000897110008971100089711000803
:10112C004511000859110008764A934213D02CE05F
:10113C003B68DB683B6229E03B68DB6804333B625D
:10114C0024E03B68DB6808333B621FE03B68DB68EC
:10115C000C333B621AE03B689B68002B02D10423E2
:10116C003B6213E03B689B68012B05D108233B6273
:10117C007B68FA691A6109E008233B627B68FA69AB
:10118C005A6103E000233B6200E000BFBB69FF2B08
:10119C0001D87B6801E07B6804337B61BB69FF2B62
:1011AC0002D87B6A9B0002E07B6A083B9B003B6198
:1011BC007B691A680F213B6901FA03F3DB431A4080
:1011CC00396A3B6901FA03F31A437B691A603B687D
:1011DC005B6803F08053002B00F0A9804A4B9B699D
:1011EC00494A43F001039361474B9B6903F00103A8
:1011FC00BB60BB68454A7B6A9B08023352F82330BC
:10120C00FB607B6A03F003039B000F2202FA03F3DB
:10121C00DB43FA681340FB607B683D4A93420DD078
:10122C007B683C4A934207D07B683B4A934201D18E
:10123C00022304E0032302E0012300E000237A6A86
:10124C0002F0030292009340FA681343FB602F49AB
:10125C007B6A9B080233FA6841F823203B685B6881
:10126C0003F48013002B06D02C4B9A682B49BB69D6
:10127C0013438B6006E0294B9A68BB69DB43274913
:10128C0013408B603B685B6803F40013002B06D0A3
:10129C00224BDA682149BB691343CB6006E01F4B34
:1012AC00DA68BB69DB431D491340CB603B685B6864
:1012BC0003F40033002B06D0184B5A681749BB694E
:1012CC0013434B6006E0154B5A68BB69DB4313496B
:1012DC0013404B603B685B6803F48033002B1FD0DA
:1012EC000E4B1A680D49BB6913430B601FE000BF1E
:1012FC0000003210000031100000221000002110FC
:10130C0000001210000011100010024000000140FB
:10131C0000080140000C0140001001400004014095
:10132C000B4B1A68BB69DB43094913400B607B6AA2
:10133C0001337B623B681A687B6A22FA03F3002B49
:10134C007FF496AE00BF00BF2C37BD4680BC704703
:10135C000004014080B483B000AF78600B467B8002
:10136C0013467B707B78002B03D07A887B681A61DC
:10137C0003E07B881A047B681A6100BF0C37BD46FA
:10138C0080BC704780B485B000AF78600B467B8022
:10139C007B68DB68FB607A88FB6813401A04FB6887
:1013AC00D9437B880B401A437B681A6100BF143702
:1013BC00BD4680BC7047000080B586B000AF786039
:1013CC007B68002B01D1012372E27B681B6803F060
:1013DC000103002B00F08780924B5B6803F00C0339
:1013EC00042B0CD08F4B5B6803F00C03082B12D131
:1013FC008C4B5B6803F48033B3F5803F0BD1894B86
:10140C001B6803F40033002B6CD07B685B68002BEB
:10141C0068D101234CE27B685B68B3F5803F06D151
:10142C00804B1B687F4A43F4803313602EE07B684B
:10143C005B68002B0CD17B4B1B687A4A23F48033FE
:10144C001360784B1B68774A23F4802313601DE0EC
:10145C007B685B68B3F5A02F0CD1724B1B68714A8B
:10146C0043F4802313606F4B1B686E4A43F4803344
:10147C0013600BE06B4B1B686A4A23F480331360D8
:10148C00684B1B68674A23F4802313607B685B6896
:10149C00002B13D0FFF7D0FC386108E0FFF7CCFC31
:1014AC0002463B69D31A642B01D9032300E25D4B3E
:1014BC001B6803F40033002BF0D014E0FFF7BCFCE6
:1014CC00386108E0FFF7B8FC02463B69D31A642B7D
:1014DC0001D90323ECE1534B1B6803F40033002BBD
:1014EC00F0D100E000BF7B681B6803F00203002B07
:1014FC0063D04C4B5B6803F00C03002B0BD0494BB7
:10150C005B6803F00C03082B1CD1464B5B6803F49F
:10151C008033002B16D1434B1B6803F00203002BC6
:10152C0005D07B681B69012B01D00123C0E13D4B29
:10153C001B6823F0F8027B685B69DB0039491343B5
:10154C000B603AE07B681B69002B20D0364B0122E4
:10155C001A60FFF771FC386108E0FFF76DFC02467A
:10156C003B69D31A022B01D90323A1E12D4B1B6834
:10157C0003F00203002BF0D02A4B1B6823F0F80277
:10158C007B685B69DB00274913430B6015E0264B36
:10159C0000221A60FFF750FC386108E0FFF74CFCA2
:1015AC0002463B69D31A022B01D9032380E11D4B60
:1015BC001B6803F00203002BF0D17B681B6803F05F
:1015CC000803002B3AD07B689B69002B19D0174B72
:1015DC0001221A60FFF730FC386108E0FFF72CFCA1
:1015EC0002463B69D31A022B01D9032360E10D4B50
:1015FC005B6A03F00203002BF0D0012000F09CFA90
:10160C001CE00A4B00221A60FFF716FC38610FE051
:10161C00FFF712FC02463B69D31A022B08D90323AD
:10162C0046E100BF001002400000424280044242EA
:10163C00924B5B6A03F00203002BE9D17B681B68B9
:10164C0003F00403002B00F0A6800023FB758B4BEA
:10165C00DB6903F08053002B0DD1884BDB69874A83
:10166C0043F08053D361854BDB6903F08053BB603F
:10167C00BB680123FB75824B1B6803F48073002B42
:10168C0018D17F4B1B687E4A43F480731360FFF7BD
:10169C00D3FB386108E0FFF7CFFB02463B69D31A56
:1016AC00642B01D9032303E1754B1B6803F480738E
:1016BC00002BF0D07B68DB68012B06D16F4B1B6ACB
:1016CC006E4A43F0010313622DE07B68DB68002B4C
:1016DC000CD16A4B1B6A694A23F001031362674BF6
:1016EC001B6A664A23F0040313621CE07B68DB6808
:1016FC00052B0CD1614B1B6A604A43F00403136247
:10170C005E4B1B6A5D4A43F0010313620BE05B4BBB
:10171C001B6A5A4A23F001031362584B1B6A574A3F
:10172C0023F0040313627B68DB68002B15D0FFF7F2
:10173C0083FB38610AE0FFF77FFB02463B69D31A53
:10174C0041F28832934201D90323B1E04B4B1B6A1F
:10175C0003F00203002BEED014E0FFF76DFB3861B1
:10176C000AE0FFF769FB02463B69D31A41F2883263
:10177C00934201D903239BE0404B1B6A03F0020305
:10178C00002BEED1FB7D012B05D13C4BDB693B4A99
:10179C0023F08053D3617B68DB69002B00F08780DA
:1017AC00364B5B6803F00C03082B61D07B68DB695C
:1017BC00022B46D1334B00221A60FFF73DFB3861F8
:1017CC0008E0FFF739FB02463B69D31A022B01D91B
:1017DC0003236DE0294B1B6803F00073002BF0D141
:1017EC007B681B6AB3F5803F08D1244B5B6823F4FC
:1017FC0000327B689B68214913434B601F4B5B682D
:10180C0023F474127B68196A7B685B6A0B431B496F
:10181C0013434B601B4B01221A60FFF70DFB386121
:10182C0008E0FFF709FB02463B69D31A022B01D9EA
:10183C0003233DE0114B1B6803F00073002BF0D029
:10184C0035E0104B00221A60FFF7F6FA386108E019
:10185C00FFF7F2FA02463B69D31A022B01D9032394
:10186C0026E0064B1B6803F00073002BF0D11EE042
:10187C007B68DB69012B07D1012319E000100240C2
:10188C0000700040600042420B4B5B68FB60FB68E1
:10189C0003F480327B681B6A9A4206D1FB6803F41E
:1018AC0070127B685B6A9A4201D0012300E000232E
:1018BC0018461837BD4680BD0010024080B584B074
:1018CC0000AF786039607B68002B01D10123D0E038
:1018DC006A4B1B6803F007033A689A4210D9674BAE
:1018EC001B6823F0070265493B6813430B60634B8D
:1018FC001B6803F007033A689A4201D00123B8E051
:10190C007B681B6803F00203002B20D07B681B68EC
:10191C0003F00403002B05D0594B5B68584A43F481
:10192C00E06353607B681B6803F00803002B05D051
:10193C00534B5B68524A43F460535360504B5B68A3
:10194C0023F0F0027B689B684D4913434B607B6826
:10195C001B6803F00103002B40D07B685B68012BF4
:10196C0007D1474B1B6803F40033002B15D101231F
:10197C007FE07B685B68022B07D1414B1B6803F04F
:10198C000073002B09D1012373E03D4B1B6803F05E
:10199C000203002B01D101236BE0394B5B6823F070
:1019AC0003027B685B68364913434B60FFF744FACC
:1019BC00F8600AE0FFF740FA0246FB68D31A41F2DE
:1019CC008832934201D9032353E02D4B5B6803F01B
:1019DC000C027B685B689B009A42EBD1274B1B681F
:1019EC0003F007033A689A4210D2244B1B6823F089
:1019FC00070222493B6813430B60204B1B6803F022
:101A0C0007033A689A4201D0012332E07B681B68D5
:101A1C0003F00403002B08D0194B5B6823F4E0623D
:101A2C007B68DB68164913434B607B681B6803F0CB
:101A3C000803002B09D0124B5B6823F460527B68BF
:101A4C001B69DB000E4913434B6000F021F8024682
:101A5C000B4B5B681B0903F00F030A49CB5C22FAA2
:101A6C0003F3094A1360094B1B681846FFF7A2F9E8
:101A7C00002318461037BD4680BD00BF0020024031
:101A8C0000100240F01B00080C0000201000002089
:101A9C0080B487B000AF0023FB600023BB60002341
:101AAC007B6100237B6000233B611E4B5B68FB600A
:101ABC00FB6803F00C03042B02D0082B03D027E0A7
:101ACC00194B3B6127E0FB689B0C03F00F03174A93
:101ADC00D35C7B60FB6803F48033002B10D0114B7C
:101AEC005B685B0C03F00103114AD35CBB607B6841
:101AFC000D4A03FB02F2BB68B2FBF3F37B6104E01B
:101B0C007B680C4A02FB03F37B617B693B6102E05F
:101B1C00054B3B6100BF3B6918461C37BD4680BC7A
:101B2C00704700BF0010024000127A00001C000831
:101B3C00101C000800093D0080B485B000AF78602F
:101B4C000A4B1B680A4AA2FB03235B0A7A6802FB56
:101B5C0003F3FB6000BFFB685A1EFA60002BF9D13F
:101B6C0000BF00BF1437BD4680BC70470C0000207E
:101B7C00D34D621003460244934200D1704703F8E0
:101B8C00011BF9E770B500260C4D0D4C641BA4101D
:101B9C00A64209D100F01AF800260A4D0A4C641B23
:101BAC00A410A64205D170BD55F8043B98470136E8
:101BBC00EEE755F8043B98470136F2E7141C000891
:101BCC00141C0008141C0008181C0008F8B500BFF1
:101BDC00F8BC08BC9E467047F8B500BFF8BC08BC02
:041BEC009E4670475A
:101BF00000000000000000000102030406070809BD
:101C000002030405060708090A0B0C0D0E0F10103D
:041C100001020000CD
:041C14003101000892
:041C18000D010008B2
:101C1C0005000000020000000300000000127A0022
:081C2C0010000000010000009F
:0400000508000D4999
:00000001FF
